{
  "contractName": "BatchMintNFT",
  "abi": [
    {
      "inputs": [],
      "stateMutability": "nonpayable",
      "type": "constructor"
    },
    {
      "inputs": [
        {
          "internalType": "address",
          "name": "sender",
          "type": "address"
        },
        {
          "internalType": "uint256",
          "name": "tokenId",
          "type": "uint256"
        },
        {
          "internalType": "address",
          "name": "owner",
          "type": "address"
        }
      ],
      "name": "ERC721IncorrectOwner",
      "type": "error"
    },
    {
      "inputs": [
        {
          "internalType": "address",
          "name": "operator",
          "type": "address"
        },
        {
          "internalType": "uint256",
          "name": "tokenId",
          "type": "uint256"
        }
      ],
      "name": "ERC721InsufficientApproval",
      "type": "error"
    },
    {
      "inputs": [
        {
          "internalType": "address",
          "name": "approver",
          "type": "address"
        }
      ],
      "name": "ERC721InvalidApprover",
      "type": "error"
    },
    {
      "inputs": [
        {
          "internalType": "address",
          "name": "operator",
          "type": "address"
        }
      ],
      "name": "ERC721InvalidOperator",
      "type": "error"
    },
    {
      "inputs": [
        {
          "internalType": "address",
          "name": "owner",
          "type": "address"
        }
      ],
      "name": "ERC721InvalidOwner",
      "type": "error"
    },
    {
      "inputs": [
        {
          "internalType": "address",
          "name": "receiver",
          "type": "address"
        }
      ],
      "name": "ERC721InvalidReceiver",
      "type": "error"
    },
    {
      "inputs": [
        {
          "internalType": "address",
          "name": "sender",
          "type": "address"
        }
      ],
      "name": "ERC721InvalidSender",
      "type": "error"
    },
    {
      "inputs": [
        {
          "internalType": "uint256",
          "name": "tokenId",
          "type": "uint256"
        }
      ],
      "name": "ERC721NonexistentToken",
      "type": "error"
    },
    {
      "inputs": [
        {
          "internalType": "address",
          "name": "owner",
          "type": "address"
        }
      ],
      "name": "OwnableInvalidOwner",
      "type": "error"
    },
    {
      "inputs": [
        {
          "internalType": "address",
          "name": "account",
          "type": "address"
        }
      ],
      "name": "OwnableUnauthorizedAccount",
      "type": "error"
    },
    {
      "anonymous": false,
      "inputs": [
        {
          "indexed": true,
          "internalType": "address",
          "name": "owner",
          "type": "address"
        },
        {
          "indexed": true,
          "internalType": "address",
          "name": "approved",
          "type": "address"
        },
        {
          "indexed": true,
          "internalType": "uint256",
          "name": "tokenId",
          "type": "uint256"
        }
      ],
      "name": "Approval",
      "type": "event"
    },
    {
      "anonymous": false,
      "inputs": [
        {
          "indexed": true,
          "internalType": "address",
          "name": "owner",
          "type": "address"
        },
        {
          "indexed": true,
          "internalType": "address",
          "name": "operator",
          "type": "address"
        },
        {
          "indexed": false,
          "internalType": "bool",
          "name": "approved",
          "type": "bool"
        }
      ],
      "name": "ApprovalForAll",
      "type": "event"
    },
    {
      "anonymous": false,
      "inputs": [
        {
          "indexed": false,
          "internalType": "uint256",
          "name": "_fromTokenId",
          "type": "uint256"
        },
        {
          "indexed": false,
          "internalType": "uint256",
          "name": "_toTokenId",
          "type": "uint256"
        }
      ],
      "name": "BatchMetadataUpdate",
      "type": "event"
    },
    {
      "anonymous": false,
      "inputs": [
        {
          "indexed": false,
          "internalType": "uint256",
          "name": "_tokenId",
          "type": "uint256"
        }
      ],
      "name": "MetadataUpdate",
      "type": "event"
    },
    {
      "anonymous": false,
      "inputs": [
        {
          "indexed": true,
          "internalType": "address",
          "name": "previousOwner",
          "type": "address"
        },
        {
          "indexed": true,
          "internalType": "address",
          "name": "newOwner",
          "type": "address"
        }
      ],
      "name": "OwnershipTransferred",
      "type": "event"
    },
    {
      "anonymous": false,
      "inputs": [
        {
          "indexed": true,
          "internalType": "address",
          "name": "from",
          "type": "address"
        },
        {
          "indexed": true,
          "internalType": "address",
          "name": "to",
          "type": "address"
        },
        {
          "indexed": true,
          "internalType": "uint256",
          "name": "tokenId",
          "type": "uint256"
        }
      ],
      "name": "Transfer",
      "type": "event"
    },
    {
      "inputs": [
        {
          "internalType": "address",
          "name": "to",
          "type": "address"
        },
        {
          "internalType": "uint256",
          "name": "tokenId",
          "type": "uint256"
        }
      ],
      "name": "approve",
      "outputs": [],
      "stateMutability": "nonpayable",
      "type": "function"
    },
    {
      "inputs": [
        {
          "internalType": "address",
          "name": "owner",
          "type": "address"
        }
      ],
      "name": "balanceOf",
      "outputs": [
        {
          "internalType": "uint256",
          "name": "",
          "type": "uint256"
        }
      ],
      "stateMutability": "view",
      "type": "function"
    },
    {
      "inputs": [
        {
          "internalType": "uint256",
          "name": "tokenId",
          "type": "uint256"
        }
      ],
      "name": "getApproved",
      "outputs": [
        {
          "internalType": "address",
          "name": "",
          "type": "address"
        }
      ],
      "stateMutability": "view",
      "type": "function"
    },
    {
      "inputs": [
        {
          "internalType": "address",
          "name": "owner",
          "type": "address"
        },
        {
          "internalType": "address",
          "name": "operator",
          "type": "address"
        }
      ],
      "name": "isApprovedForAll",
      "outputs": [
        {
          "internalType": "bool",
          "name": "",
          "type": "bool"
        }
      ],
      "stateMutability": "view",
      "type": "function"
    },
    {
      "inputs": [],
      "name": "name",
      "outputs": [
        {
          "internalType": "string",
          "name": "",
          "type": "string"
        }
      ],
      "stateMutability": "view",
      "type": "function"
    },
    {
      "inputs": [],
      "name": "owner",
      "outputs": [
        {
          "internalType": "address",
          "name": "",
          "type": "address"
        }
      ],
      "stateMutability": "view",
      "type": "function"
    },
    {
      "inputs": [
        {
          "internalType": "uint256",
          "name": "tokenId",
          "type": "uint256"
        }
      ],
      "name": "ownerOf",
      "outputs": [
        {
          "internalType": "address",
          "name": "",
          "type": "address"
        }
      ],
      "stateMutability": "view",
      "type": "function"
    },
    {
      "inputs": [],
      "name": "renounceOwnership",
      "outputs": [],
      "stateMutability": "nonpayable",
      "type": "function"
    },
    {
      "inputs": [
        {
          "internalType": "address",
          "name": "from",
          "type": "address"
        },
        {
          "internalType": "address",
          "name": "to",
          "type": "address"
        },
        {
          "internalType": "uint256",
          "name": "tokenId",
          "type": "uint256"
        }
      ],
      "name": "safeTransferFrom",
      "outputs": [],
      "stateMutability": "nonpayable",
      "type": "function"
    },
    {
      "inputs": [
        {
          "internalType": "address",
          "name": "from",
          "type": "address"
        },
        {
          "internalType": "address",
          "name": "to",
          "type": "address"
        },
        {
          "internalType": "uint256",
          "name": "tokenId",
          "type": "uint256"
        },
        {
          "internalType": "bytes",
          "name": "data",
          "type": "bytes"
        }
      ],
      "name": "safeTransferFrom",
      "outputs": [],
      "stateMutability": "nonpayable",
      "type": "function"
    },
    {
      "inputs": [
        {
          "internalType": "address",
          "name": "operator",
          "type": "address"
        },
        {
          "internalType": "bool",
          "name": "approved",
          "type": "bool"
        }
      ],
      "name": "setApprovalForAll",
      "outputs": [],
      "stateMutability": "nonpayable",
      "type": "function"
    },
    {
      "inputs": [
        {
          "internalType": "bytes4",
          "name": "interfaceId",
          "type": "bytes4"
        }
      ],
      "name": "supportsInterface",
      "outputs": [
        {
          "internalType": "bool",
          "name": "",
          "type": "bool"
        }
      ],
      "stateMutability": "view",
      "type": "function"
    },
    {
      "inputs": [],
      "name": "symbol",
      "outputs": [
        {
          "internalType": "string",
          "name": "",
          "type": "string"
        }
      ],
      "stateMutability": "view",
      "type": "function"
    },
    {
      "inputs": [],
      "name": "tokenCounter",
      "outputs": [
        {
          "internalType": "uint256",
          "name": "",
          "type": "uint256"
        }
      ],
      "stateMutability": "view",
      "type": "function"
    },
    {
      "inputs": [
        {
          "internalType": "uint256",
          "name": "tokenId",
          "type": "uint256"
        }
      ],
      "name": "tokenURI",
      "outputs": [
        {
          "internalType": "string",
          "name": "",
          "type": "string"
        }
      ],
      "stateMutability": "view",
      "type": "function"
    },
    {
      "inputs": [
        {
          "internalType": "address",
          "name": "from",
          "type": "address"
        },
        {
          "internalType": "address",
          "name": "to",
          "type": "address"
        },
        {
          "internalType": "uint256",
          "name": "tokenId",
          "type": "uint256"
        }
      ],
      "name": "transferFrom",
      "outputs": [],
      "stateMutability": "nonpayable",
      "type": "function"
    },
    {
      "inputs": [
        {
          "internalType": "address",
          "name": "newOwner",
          "type": "address"
        }
      ],
      "name": "transferOwnership",
      "outputs": [],
      "stateMutability": "nonpayable",
      "type": "function"
    },
    {
      "inputs": [
        {
          "internalType": "address",
          "name": "to",
          "type": "address"
        },
        {
          "internalType": "string[]",
          "name": "tokenURIs",
          "type": "string[]"
        }
      ],
      "name": "batchMint",
      "outputs": [],
      "stateMutability": "nonpayable",
      "type": "function"
    }
  ],
  "bytecode": "0x608060405234801562000010575f80fd5b50336040518060400160405280600c81526020017f42617463684d696e744e465400000000000000000000000000000000000000008152506040518060400160405280600581526020017f424d4e4654000000000000000000000000000000000000000000000000000000815250815f90816200008e91906200045c565b508060019081620000a091906200045c565b5050505f73ffffffffffffffffffffffffffffffffffffffff168173ffffffffffffffffffffffffffffffffffffffff160362000116575f6040517f1e4fbdf70000000000000000000000000000000000000000000000000000000081526004016200010d919062000583565b60405180910390fd5b62000127816200013560201b60201c565b505f6008819055506200059e565b5f60075f9054906101000a900473ffffffffffffffffffffffffffffffffffffffff1690508160075f6101000a81548173ffffffffffffffffffffffffffffffffffffffff021916908373ffffffffffffffffffffffffffffffffffffffff1602179055508173ffffffffffffffffffffffffffffffffffffffff168173ffffffffffffffffffffffffffffffffffffffff167f8be0079c531659141344cd1fd0a4f28419497f9722a3daafe3b4186f6b6457e060405160405180910390a35050565b5f81519050919050565b7f4e487b71000000000000000000000000000000000000000000000000000000005f52604160045260245ffd5b7f4e487b71000000000000000000000000000000000000000000000000000000005f52602260045260245ffd5b5f60028204905060018216806200027457607f821691505b6020821081036200028a57620002896200022f565b5b50919050565b5f819050815f5260205f209050919050565b5f6020601f8301049050919050565b5f82821b905092915050565b5f60088302620002ee7fffffffffffffffffffffffffffffffffffffffffffffffffffffffffffffffff82620002b1565b620002fa8683620002b1565b95508019841693508086168417925050509392505050565b5f819050919050565b5f819050919050565b5f620003446200033e620003388462000312565b6200031b565b62000312565b9050919050565b5f819050919050565b6200035f8362000324565b620003776200036e826200034b565b848454620002bd565b825550505050565b5f90565b6200038d6200037f565b6200039a81848462000354565b505050565b5b81811015620003c157620003b55f8262000383565b600181019050620003a0565b5050565b601f8211156200041057620003da8162000290565b620003e584620002a2565b81016020851015620003f5578190505b6200040d6200040485620002a2565b8301826200039f565b50505b505050565b5f82821c905092915050565b5f620004325f198460080262000415565b1980831691505092915050565b5f6200044c838362000421565b9150826002028217905092915050565b6200046782620001f8565b67ffffffffffffffff81111562000483576200048262000202565b5b6200048f82546200025c565b6200049c828285620003c5565b5f60209050601f831160018114620004d2575f8415620004bd578287015190505b620004c985826200043f565b86555062000538565b601f198416620004e28662000290565b5f5b828110156200050b57848901518255600182019150602085019450602081019050620004e4565b868310156200052b578489015162000527601f89168262000421565b8355505b6001600288020188555050505b505050505050565b5f73ffffffffffffffffffffffffffffffffffffffff82169050919050565b5f6200056b8262000540565b9050919050565b6200057d816200055f565b82525050565b5f602082019050620005985f83018462000572565b92915050565b61270080620005ac5f395ff3fe608060405234801561000f575f80fd5b5060043610610114575f3560e01c80638da5cb5b116100a0578063c87b56dd1161006f578063c87b56dd146102c8578063d082e381146102f8578063e985e9c514610316578063f2f18baa14610346578063f2fde38b1461036257610114565b80638da5cb5b1461025457806395d89b4114610272578063a22cb46514610290578063b88d4fde146102ac57610114565b806323b872dd116100e757806323b872dd146101b257806342842e0e146101ce5780636352211e146101ea57806370a082311461021a578063715018a61461024a57610114565b806301ffc9a71461011857806306fdde0314610148578063081812fc14610166578063095ea7b314610196575b5f80fd5b610132600480360381019061012d9190611aaa565b61037e565b60405161013f9190611aef565b60405180910390f35b6101506103de565b60405161015d9190611b92565b60405180910390f35b610180600480360381019061017b9190611be5565b61046d565b60405161018d9190611c4f565b60405180910390f35b6101b060048036038101906101ab9190611c92565b610488565b005b6101cc60048036038101906101c79190611cd0565b61049e565b005b6101e860048036038101906101e39190611cd0565b61059d565b005b61020460048036038101906101ff9190611be5565b6105bc565b6040516102119190611c4f565b60405180910390f35b610234600480360381019061022f9190611d20565b6105cd565b6040516102419190611d5a565b60405180910390f35b610252610683565b005b61025c610696565b6040516102699190611c4f565b60405180910390f35b61027a6106be565b6040516102879190611b92565b60405180910390f35b6102aa60048036038101906102a59190611d9d565b61074e565b005b6102c660048036038101906102c19190611f07565b610764565b005b6102e260048036038101906102dd9190611be5565b610781565b6040516102ef9190611b92565b60405180910390f35b61030061088c565b60405161030d9190611d5a565b60405180910390f35b610330600480360381019061032b9190611f87565b610892565b60405161033d9190611aef565b60405180910390f35b610360600480360381019061035b9190612145565b610920565b005b61037c60048036038101906103779190611d20565b610997565b005b5f634906490660e01b7bffffffffffffffffffffffffffffffffffffffffffffffffffffffff1916827bffffffffffffffffffffffffffffffffffffffffffffffffffffffff191614806103d757506103d682610a1b565b5b9050919050565b60605f80546103ec906121cc565b80601f0160208091040260200160405190810160405280929190818152602001828054610418906121cc565b80156104635780601f1061043a57610100808354040283529160200191610463565b820191905f5260205f20905b81548152906001019060200180831161044657829003601f168201915b5050505050905090565b5f61047782610afc565b5061048182610b82565b9050919050565b61049a8282610495610bbb565b610bc2565b5050565b5f73ffffffffffffffffffffffffffffffffffffffff168273ffffffffffffffffffffffffffffffffffffffff160361050e575f6040517f64a0ae920000000000000000000000000000000000000000000000000000000081526004016105059190611c4f565b60405180910390fd5b5f610521838361051c610bbb565b610bd4565b90508373ffffffffffffffffffffffffffffffffffffffff168173ffffffffffffffffffffffffffffffffffffffff1614610597578382826040517f64283d7b00000000000000000000000000000000000000000000000000000000815260040161058e939291906121fc565b60405180910390fd5b50505050565b6105b783838360405180602001604052805f815250610764565b505050565b5f6105c682610afc565b9050919050565b5f8073ffffffffffffffffffffffffffffffffffffffff168273ffffffffffffffffffffffffffffffffffffffff160361063e575f6040517f89c62b640000000000000000000000000000000000000000000000000000000081526004016106359190611c4f565b60405180910390fd5b60035f8373ffffffffffffffffffffffffffffffffffffffff1673ffffffffffffffffffffffffffffffffffffffff1681526020019081526020015f20549050919050565b61068b610ddf565b6106945f610e66565b565b5f60075f9054906101000a900473ffffffffffffffffffffffffffffffffffffffff16905090565b6060600180546106cd906121cc565b80601f01602080910402602001604051908101604052809291908181526020018280546106f9906121cc565b80156107445780601f1061071b57610100808354040283529160200191610744565b820191905f5260205f20905b81548152906001019060200180831161072757829003601f168201915b5050505050905090565b610760610759610bbb565b8383610f29565b5050565b61076f84848461049e565b61077b84848484611092565b50505050565b606061078c82610afc565b505f60065f8481526020019081526020015f2080546107aa906121cc565b80601f01602080910402602001604051908101604052809291908181526020018280546107d6906121cc565b80156108215780601f106107f857610100808354040283529160200191610821565b820191905f5260205f20905b81548152906001019060200180831161080457829003601f168201915b505050505090505f610831611244565b90505f815103610845578192505050610887565b5f8251111561087957808260405160200161086192919061226b565b60405160208183030381529060405292505050610887565b6108828461125a565b925050505b919050565b60085481565b5f60055f8473ffffffffffffffffffffffffffffffffffffffff1673ffffffffffffffffffffffffffffffffffffffff1681526020019081526020015f205f8373ffffffffffffffffffffffffffffffffffffffff1673ffffffffffffffffffffffffffffffffffffffff1681526020019081526020015f205f9054906101000a900460ff16905092915050565b610928610ddf565b5f5b8151811015610992575f600854905061094384826112c0565b6109678184848151811061095a5761095961228e565b5b60200260200101516112dd565b60085f815480929190610979906122e8565b919050555050808061098a906122e8565b91505061092a565b505050565b61099f610ddf565b5f73ffffffffffffffffffffffffffffffffffffffff168173ffffffffffffffffffffffffffffffffffffffff1603610a0f575f6040517f1e4fbdf7000000000000000000000000000000000000000000000000000000008152600401610a069190611c4f565b60405180910390fd5b610a1881610e66565b50565b5f7f80ac58cd000000000000000000000000000000000000000000000000000000007bffffffffffffffffffffffffffffffffffffffffffffffffffffffff1916827bffffffffffffffffffffffffffffffffffffffffffffffffffffffff19161480610ae557507f5b5e139f000000000000000000000000000000000000000000000000000000007bffffffffffffffffffffffffffffffffffffffffffffffffffffffff1916827bffffffffffffffffffffffffffffffffffffffffffffffffffffffff1916145b80610af55750610af482611337565b5b9050919050565b5f80610b07836113a0565b90505f73ffffffffffffffffffffffffffffffffffffffff168173ffffffffffffffffffffffffffffffffffffffff1603610b7957826040517f7e273289000000000000000000000000000000000000000000000000000000008152600401610b709190611d5a565b60405180910390fd5b80915050919050565b5f60045f8381526020019081526020015f205f9054906101000a900473ffffffffffffffffffffffffffffffffffffffff169050919050565b5f33905090565b610bcf83838360016113d9565b505050565b5f80610bdf846113a0565b90505f73ffffffffffffffffffffffffffffffffffffffff168373ffffffffffffffffffffffffffffffffffffffff1614610c2057610c1f818486611598565b5b5f73ffffffffffffffffffffffffffffffffffffffff168173ffffffffffffffffffffffffffffffffffffffff1614610cab57610c5f5f855f806113d9565b600160035f8373ffffffffffffffffffffffffffffffffffffffff1673ffffffffffffffffffffffffffffffffffffffff1681526020019081526020015f205f82825403925050819055505b5f73ffffffffffffffffffffffffffffffffffffffff168573ffffffffffffffffffffffffffffffffffffffff1614610d2a57600160035f8773ffffffffffffffffffffffffffffffffffffffff1673ffffffffffffffffffffffffffffffffffffffff1681526020019081526020015f205f82825401925050819055505b8460025f8681526020019081526020015f205f6101000a81548173ffffffffffffffffffffffffffffffffffffffff021916908373ffffffffffffffffffffffffffffffffffffffff160217905550838573ffffffffffffffffffffffffffffffffffffffff168273ffffffffffffffffffffffffffffffffffffffff167fddf252ad1be2c89b69c2b068fc378daa952ba7f163c4a11628f55a4df523b3ef60405160405180910390a4809150509392505050565b610de7610bbb565b73ffffffffffffffffffffffffffffffffffffffff16610e05610696565b73ffffffffffffffffffffffffffffffffffffffff1614610e6457610e28610bbb565b6040517f118cdaa7000000000000000000000000000000000000000000000000000000008152600401610e5b9190611c4f565b60405180910390fd5b565b5f60075f9054906101000a900473ffffffffffffffffffffffffffffffffffffffff1690508160075f6101000a81548173ffffffffffffffffffffffffffffffffffffffff021916908373ffffffffffffffffffffffffffffffffffffffff1602179055508173ffffffffffffffffffffffffffffffffffffffff168173ffffffffffffffffffffffffffffffffffffffff167f8be0079c531659141344cd1fd0a4f28419497f9722a3daafe3b4186f6b6457e060405160405180910390a35050565b5f73ffffffffffffffffffffffffffffffffffffffff168273ffffffffffffffffffffffffffffffffffffffff1603610f9957816040517f5b08ba18000000000000000000000000000000000000000000000000000000008152600401610f909190611c4f565b60405180910390fd5b8060055f8573ffffffffffffffffffffffffffffffffffffffff1673ffffffffffffffffffffffffffffffffffffffff1681526020019081526020015f205f8473ffffffffffffffffffffffffffffffffffffffff1673ffffffffffffffffffffffffffffffffffffffff1681526020019081526020015f205f6101000a81548160ff0219169083151502179055508173ffffffffffffffffffffffffffffffffffffffff168373ffffffffffffffffffffffffffffffffffffffff167f17307eab39ab6107e8899845ad3d59bd9653f200f220920489ca2b5937696c31836040516110859190611aef565b60405180910390a3505050565b5f8373ffffffffffffffffffffffffffffffffffffffff163b111561123e578273ffffffffffffffffffffffffffffffffffffffff1663150b7a026110d5610bbb565b8685856040518563ffffffff1660e01b81526004016110f79493929190612381565b6020604051808303815f875af192505050801561113257506040513d601f19601f8201168201806040525081019061112f91906123df565b60015b6111b3573d805f8114611160576040519150601f19603f3d011682016040523d82523d5f602084013e611165565b606091505b505f8151036111ab57836040517f64a0ae920000000000000000000000000000000000000000000000000000000081526004016111a29190611c4f565b60405180910390fd5b805181602001fd5b63150b7a0260e01b7bffffffffffffffffffffffffffffffffffffffffffffffffffffffff1916817bffffffffffffffffffffffffffffffffffffffffffffffffffffffff19161461123c57836040517f64a0ae920000000000000000000000000000000000000000000000000000000081526004016112339190611c4f565b60405180910390fd5b505b50505050565b606060405180602001604052805f815250905090565b606061126582610afc565b505f61126f611244565b90505f81511161128d5760405180602001604052805f8152506112b8565b806112978461165b565b6040516020016112a892919061226b565b6040516020818303038152906040525b915050919050565b6112d9828260405180602001604052805f815250611725565b5050565b8060065f8481526020019081526020015f2090816112fb91906125a7565b507ff8e1a15aba9398e019f0b49df1a4fde98ee17ae345cb5f6b5e2c27f5033e8ce78260405161132b9190611d5a565b60405180910390a15050565b5f7f01ffc9a7000000000000000000000000000000000000000000000000000000007bffffffffffffffffffffffffffffffffffffffffffffffffffffffff1916827bffffffffffffffffffffffffffffffffffffffffffffffffffffffff1916149050919050565b5f60025f8381526020019081526020015f205f9054906101000a900473ffffffffffffffffffffffffffffffffffffffff169050919050565b808061141157505f73ffffffffffffffffffffffffffffffffffffffff168273ffffffffffffffffffffffffffffffffffffffff1614155b15611543575f61142084610afc565b90505f73ffffffffffffffffffffffffffffffffffffffff168373ffffffffffffffffffffffffffffffffffffffff161415801561148a57508273ffffffffffffffffffffffffffffffffffffffff168173ffffffffffffffffffffffffffffffffffffffff1614155b801561149d575061149b8184610892565b155b156114df57826040517fa9fbf51f0000000000000000000000000000000000000000000000000000000081526004016114d69190611c4f565b60405180910390fd5b811561154157838573ffffffffffffffffffffffffffffffffffffffff168273ffffffffffffffffffffffffffffffffffffffff167f8c5be1e5ebec7d5bd14f71427d1e84f3dd0314c0f7b2291e5b200ac8c7c3b92560405160405180910390a45b505b8360045f8581526020019081526020015f205f6101000a81548173ffffffffffffffffffffffffffffffffffffffff021916908373ffffffffffffffffffffffffffffffffffffffff16021790555050505050565b6115a3838383611740565b611656575f73ffffffffffffffffffffffffffffffffffffffff168373ffffffffffffffffffffffffffffffffffffffff160361161757806040517f7e27328900000000000000000000000000000000000000000000000000000000815260040161160e9190611d5a565b60405180910390fd5b81816040517f177e802f00000000000000000000000000000000000000000000000000000000815260040161164d929190612676565b60405180910390fd5b505050565b60605f600161166984611800565b0190505f8167ffffffffffffffff81111561168757611686611de3565b5b6040519080825280601f01601f1916602001820160405280156116b95781602001600182028036833780820191505090505b5090505f82602001820190505b60011561171a578080600190039150507f3031323334353637383961626364656600000000000000000000000000000000600a86061a8153600a858161170f5761170e61269d565b5b0494505f85036116c6575b819350505050919050565b61172f8383611951565b61173b5f848484611092565b505050565b5f8073ffffffffffffffffffffffffffffffffffffffff168373ffffffffffffffffffffffffffffffffffffffff16141580156117f757508273ffffffffffffffffffffffffffffffffffffffff168473ffffffffffffffffffffffffffffffffffffffff1614806117b857506117b78484610892565b5b806117f657508273ffffffffffffffffffffffffffffffffffffffff166117de83610b82565b73ffffffffffffffffffffffffffffffffffffffff16145b5b90509392505050565b5f805f90507a184f03e93ff9f4daa797ed6e38ed64bf6a1f010000000000000000831061185c577a184f03e93ff9f4daa797ed6e38ed64bf6a1f01000000000000000083816118525761185161269d565b5b0492506040810190505b6d04ee2d6d415b85acef81000000008310611899576d04ee2d6d415b85acef8100000000838161188f5761188e61269d565b5b0492506020810190505b662386f26fc1000083106118c857662386f26fc1000083816118be576118bd61269d565b5b0492506010810190505b6305f5e10083106118f1576305f5e10083816118e7576118e661269d565b5b0492506008810190505b612710831061191657612710838161190c5761190b61269d565b5b0492506004810190505b60648310611939576064838161192f5761192e61269d565b5b0492506002810190505b600a8310611948576001810190505b80915050919050565b5f73ffffffffffffffffffffffffffffffffffffffff168273ffffffffffffffffffffffffffffffffffffffff16036119c1575f6040517f64a0ae920000000000000000000000000000000000000000000000000000000081526004016119b89190611c4f565b60405180910390fd5b5f6119cd83835f610bd4565b90505f73ffffffffffffffffffffffffffffffffffffffff168173ffffffffffffffffffffffffffffffffffffffff1614611a3f575f6040517f73c6ac6e000000000000000000000000000000000000000000000000000000008152600401611a369190611c4f565b60405180910390fd5b505050565b5f604051905090565b5f80fd5b5f80fd5b5f7fffffffff0000000000000000000000000000000000000000000000000000000082169050919050565b611a8981611a55565b8114611a93575f80fd5b50565b5f81359050611aa481611a80565b92915050565b5f60208284031215611abf57611abe611a4d565b5b5f611acc84828501611a96565b91505092915050565b5f8115159050919050565b611ae981611ad5565b82525050565b5f602082019050611b025f830184611ae0565b92915050565b5f81519050919050565b5f82825260208201905092915050565b5f5b83811015611b3f578082015181840152602081019050611b24565b5f8484015250505050565b5f601f19601f8301169050919050565b5f611b6482611b08565b611b6e8185611b12565b9350611b7e818560208601611b22565b611b8781611b4a565b840191505092915050565b5f6020820190508181035f830152611baa8184611b5a565b905092915050565b5f819050919050565b611bc481611bb2565b8114611bce575f80fd5b50565b5f81359050611bdf81611bbb565b92915050565b5f60208284031215611bfa57611bf9611a4d565b5b5f611c0784828501611bd1565b91505092915050565b5f73ffffffffffffffffffffffffffffffffffffffff82169050919050565b5f611c3982611c10565b9050919050565b611c4981611c2f565b82525050565b5f602082019050611c625f830184611c40565b92915050565b611c7181611c2f565b8114611c7b575f80fd5b50565b5f81359050611c8c81611c68565b92915050565b5f8060408385031215611ca857611ca7611a4d565b5b5f611cb585828601611c7e565b9250506020611cc685828601611bd1565b9150509250929050565b5f805f60608486031215611ce757611ce6611a4d565b5b5f611cf486828701611c7e565b9350506020611d0586828701611c7e565b9250506040611d1686828701611bd1565b9150509250925092565b5f60208284031215611d3557611d34611a4d565b5b5f611d4284828501611c7e565b91505092915050565b611d5481611bb2565b82525050565b5f602082019050611d6d5f830184611d4b565b92915050565b611d7c81611ad5565b8114611d86575f80fd5b50565b5f81359050611d9781611d73565b92915050565b5f8060408385031215611db357611db2611a4d565b5b5f611dc085828601611c7e565b9250506020611dd185828601611d89565b9150509250929050565b5f80fd5b5f80fd5b7f4e487b71000000000000000000000000000000000000000000000000000000005f52604160045260245ffd5b611e1982611b4a565b810181811067ffffffffffffffff82111715611e3857611e37611de3565b5b80604052505050565b5f611e4a611a44565b9050611e568282611e10565b919050565b5f67ffffffffffffffff821115611e7557611e74611de3565b5b611e7e82611b4a565b9050602081019050919050565b828183375f83830152505050565b5f611eab611ea684611e5b565b611e41565b905082815260208101848484011115611ec757611ec6611ddf565b5b611ed2848285611e8b565b509392505050565b5f82601f830112611eee57611eed611ddb565b5b8135611efe848260208601611e99565b91505092915050565b5f805f8060808587031215611f1f57611f1e611a4d565b5b5f611f2c87828801611c7e565b9450506020611f3d87828801611c7e565b9350506040611f4e87828801611bd1565b925050606085013567ffffffffffffffff811115611f6f57611f6e611a51565b5b611f7b87828801611eda565b91505092959194509250565b5f8060408385031215611f9d57611f9c611a4d565b5b5f611faa85828601611c7e565b9250506020611fbb85828601611c7e565b9150509250929050565b5f67ffffffffffffffff821115611fdf57611fde611de3565b5b602082029050602081019050919050565b5f80fd5b5f67ffffffffffffffff82111561200e5761200d611de3565b5b61201782611b4a565b9050602081019050919050565b5f61203661203184611ff4565b611e41565b90508281526020810184848401111561205257612051611ddf565b5b61205d848285611e8b565b509392505050565b5f82601f83011261207957612078611ddb565b5b8135612089848260208601612024565b91505092915050565b5f6120a461209f84611fc5565b611e41565b905080838252602082019050602084028301858111156120c7576120c6611ff0565b5b835b8181101561210e57803567ffffffffffffffff8111156120ec576120eb611ddb565b5b8086016120f98982612065565b855260208501945050506020810190506120c9565b5050509392505050565b5f82601f83011261212c5761212b611ddb565b5b813561213c848260208601612092565b91505092915050565b5f806040838503121561215b5761215a611a4d565b5b5f61216885828601611c7e565b925050602083013567ffffffffffffffff81111561218957612188611a51565b5b61219585828601612118565b9150509250929050565b7f4e487b71000000000000000000000000000000000000000000000000000000005f52602260045260245ffd5b5f60028204905060018216806121e357607f821691505b6020821081036121f6576121f561219f565b5b50919050565b5f60608201905061220f5f830186611c40565b61221c6020830185611d4b565b6122296040830184611c40565b949350505050565b5f81905092915050565b5f61224582611b08565b61224f8185612231565b935061225f818560208601611b22565b80840191505092915050565b5f612276828561223b565b9150612282828461223b565b91508190509392505050565b7f4e487b71000000000000000000000000000000000000000000000000000000005f52603260045260245ffd5b7f4e487b71000000000000000000000000000000000000000000000000000000005f52601160045260245ffd5b5f6122f282611bb2565b91507fffffffffffffffffffffffffffffffffffffffffffffffffffffffffffffffff8203612324576123236122bb565b5b600182019050919050565b5f81519050919050565b5f82825260208201905092915050565b5f6123538261232f565b61235d8185612339565b935061236d818560208601611b22565b61237681611b4a565b840191505092915050565b5f6080820190506123945f830187611c40565b6123a16020830186611c40565b6123ae6040830185611d4b565b81810360608301526123c08184612349565b905095945050505050565b5f815190506123d981611a80565b92915050565b5f602082840312156123f4576123f3611a4d565b5b5f612401848285016123cb565b91505092915050565b5f819050815f5260205f209050919050565b5f6020601f8301049050919050565b5f82821b905092915050565b5f600883026124667fffffffffffffffffffffffffffffffffffffffffffffffffffffffffffffffff8261242b565b612470868361242b565b95508019841693508086168417925050509392505050565b5f819050919050565b5f6124ab6124a66124a184611bb2565b612488565b611bb2565b9050919050565b5f819050919050565b6124c483612491565b6124d86124d0826124b2565b848454612437565b825550505050565b5f90565b6124ec6124e0565b6124f78184846124bb565b505050565b5b8181101561251a5761250f5f826124e4565b6001810190506124fd565b5050565b601f82111561255f576125308161240a565b6125398461241c565b81016020851015612548578190505b61255c6125548561241c565b8301826124fc565b50505b505050565b5f82821c905092915050565b5f61257f5f1984600802612564565b1980831691505092915050565b5f6125978383612570565b9150826002028217905092915050565b6125b082611b08565b67ffffffffffffffff8111156125c9576125c8611de3565b5b6125d382546121cc565b6125de82828561251e565b5f60209050601f83116001811461260f575f84156125fd578287015190505b612607858261258c565b86555061266e565b601f19841661261d8661240a565b5f5b828110156126445784890151825560018201915060208501945060208101905061261f565b86831015612661578489015161265d601f891682612570565b8355505b6001600288020188555050505b505050505050565b5f6040820190506126895f830185611c40565b6126966020830184611d4b565b9392505050565b7f4e487b71000000000000000000000000000000000000000000000000000000005f52601260045260245ffdfea2646970667358221220f2fc58aa98ffa16b49750a76a3dda024470a725e4802c137573266c63636410864736f6c63430008150033",
  "immutableReferences": {},
  "source": "// SPDX-License-Identifier: MIT\npragma solidity ^0.8.0;\n\nimport \"@openzeppelin/contracts/token/ERC721/extensions/ERC721URIStorage.sol\";\nimport \"@openzeppelin/contracts/access/Ownable.sol\";\n\ncontract BatchMintNFT is ERC721URIStorage, Ownable {\n    uint256 public tokenCounter;\n\n    constructor() ERC721(\"BatchMintNFT\", \"BMNFT\") Ownable(msg.sender) {\n        tokenCounter = 0;\n    }\n\n    function batchMint(address to, string[] memory tokenURIs) public onlyOwner {\n        for (uint256 i = 0; i < tokenURIs.length; i++) {\n            uint256 newTokenId = tokenCounter;\n            _safeMint(to, newTokenId);\n            _setTokenURI(newTokenId, tokenURIs[i]);\n            tokenCounter++;\n        }\n    }\n}",
  "sourcePath": "/Users/aya/Desktop/technical-assignement/lending-borrowing-contracts/contracts/BatchMint.sol",
  "compiler": {
    "name": "solc",
    "version": "0.8.21+commit.d9974bed.Emscripten.clang"
  },
  "schemaVersion": "3.4.16",
  "updatedAt": "2024-07-28T12:28:20.524Z",
  "devdoc": {
    "errors": {
      "ERC721IncorrectOwner(address,uint256,address)": [
        {
          "details": "Indicates an error related to the ownership over a particular token. Used in transfers.",
          "params": {
            "owner": "Address of the current owner of a token.",
            "sender": "Address whose tokens are being transferred.",
            "tokenId": "Identifier number of a token."
          }
        }
      ],
      "ERC721InsufficientApproval(address,uint256)": [
        {
          "details": "Indicates a failure with the `operator`s approval. Used in transfers.",
          "params": {
            "operator": "Address that may be allowed to operate on tokens without being their owner.",
            "tokenId": "Identifier number of a token."
          }
        }
      ],
      "ERC721InvalidApprover(address)": [
        {
          "details": "Indicates a failure with the `approver` of a token to be approved. Used in approvals.",
          "params": {
            "approver": "Address initiating an approval operation."
          }
        }
      ],
      "ERC721InvalidOperator(address)": [
        {
          "details": "Indicates a failure with the `operator` to be approved. Used in approvals.",
          "params": {
            "operator": "Address that may be allowed to operate on tokens without being their owner."
          }
        }
      ],
      "ERC721InvalidOwner(address)": [
        {
          "details": "Indicates that an address can't be an owner. For example, `address(0)` is a forbidden owner in EIP-20. Used in balance queries.",
          "params": {
            "owner": "Address of the current owner of a token."
          }
        }
      ],
      "ERC721InvalidReceiver(address)": [
        {
          "details": "Indicates a failure with the token `receiver`. Used in transfers.",
          "params": {
            "receiver": "Address to which tokens are being transferred."
          }
        }
      ],
      "ERC721InvalidSender(address)": [
        {
          "details": "Indicates a failure with the token `sender`. Used in transfers.",
          "params": {
            "sender": "Address whose tokens are being transferred."
          }
        }
      ],
      "ERC721NonexistentToken(uint256)": [
        {
          "details": "Indicates a `tokenId` whose `owner` is the zero address.",
          "params": {
            "tokenId": "Identifier number of a token."
          }
        }
      ],
      "OwnableInvalidOwner(address)": [
        {
          "details": "The owner is not a valid owner account. (eg. `address(0)`)"
        }
      ],
      "OwnableUnauthorizedAccount(address)": [
        {
          "details": "The caller account is not authorized to perform an operation."
        }
      ]
    },
    "events": {
      "Approval(address,address,uint256)": {
        "details": "Emitted when `owner` enables `approved` to manage the `tokenId` token."
      },
      "ApprovalForAll(address,address,bool)": {
        "details": "Emitted when `owner` enables or disables (`approved`) `operator` to manage all of its assets."
      },
      "BatchMetadataUpdate(uint256,uint256)": {
        "details": "This event emits when the metadata of a range of tokens is changed. So that the third-party platforms such as NFT market could timely update the images and related attributes of the NFTs."
      },
      "MetadataUpdate(uint256)": {
        "details": "This event emits when the metadata of a token is changed. So that the third-party platforms such as NFT market could timely update the images and related attributes of the NFT."
      },
      "Transfer(address,address,uint256)": {
        "details": "Emitted when `tokenId` token is transferred from `from` to `to`."
      }
    },
    "kind": "dev",
    "methods": {
      "approve(address,uint256)": {
        "details": "See {IERC721-approve}."
      },
      "balanceOf(address)": {
        "details": "See {IERC721-balanceOf}."
      },
      "getApproved(uint256)": {
        "details": "See {IERC721-getApproved}."
      },
      "isApprovedForAll(address,address)": {
        "details": "See {IERC721-isApprovedForAll}."
      },
      "name()": {
        "details": "See {IERC721Metadata-name}."
      },
      "owner()": {
        "details": "Returns the address of the current owner."
      },
      "ownerOf(uint256)": {
        "details": "See {IERC721-ownerOf}."
      },
      "renounceOwnership()": {
        "details": "Leaves the contract without owner. It will not be possible to call `onlyOwner` functions. Can only be called by the current owner. NOTE: Renouncing ownership will leave the contract without an owner, thereby disabling any functionality that is only available to the owner."
      },
      "safeTransferFrom(address,address,uint256)": {
        "details": "See {IERC721-safeTransferFrom}."
      },
      "safeTransferFrom(address,address,uint256,bytes)": {
        "details": "See {IERC721-safeTransferFrom}."
      },
      "setApprovalForAll(address,bool)": {
        "details": "See {IERC721-setApprovalForAll}."
      },
      "supportsInterface(bytes4)": {
        "details": "See {IERC165-supportsInterface}"
      },
      "symbol()": {
        "details": "See {IERC721Metadata-symbol}."
      },
      "tokenURI(uint256)": {
        "details": "See {IERC721Metadata-tokenURI}."
      },
      "transferFrom(address,address,uint256)": {
        "details": "See {IERC721-transferFrom}."
      },
      "transferOwnership(address)": {
        "details": "Transfers ownership of the contract to a new account (`newOwner`). Can only be called by the current owner."
      }
    },
    "version": 1
  },
  "userdoc": {
    "kind": "user",
    "methods": {},
    "version": 1
  }
}