{
  "contractName": "NFTLending",
  "abi": [
    {
      "inputs": [
        {
          "internalType": "address",
          "name": "_nftContract",
          "type": "address"
        }
      ],
      "stateMutability": "nonpayable",
      "type": "constructor"
    },
    {
      "anonymous": false,
      "inputs": [
        {
          "indexed": true,
          "internalType": "uint256",
          "name": "nftId",
          "type": "uint256"
        },
        {
          "indexed": true,
          "internalType": "address",
          "name": "lender",
          "type": "address"
        },
        {
          "indexed": false,
          "internalType": "uint256",
          "name": "amount",
          "type": "uint256"
        },
        {
          "indexed": false,
          "internalType": "uint256",
          "name": "interest",
          "type": "uint256"
        },
        {
          "indexed": false,
          "internalType": "uint256",
          "name": "duration",
          "type": "uint256"
        }
      ],
      "name": "LoanCreated",
      "type": "event"
    },
    {
      "anonymous": false,
      "inputs": [
        {
          "indexed": true,
          "internalType": "uint256",
          "name": "nftId",
          "type": "uint256"
        }
      ],
      "name": "LoanDefaulted",
      "type": "event"
    },
    {
      "anonymous": false,
      "inputs": [
        {
          "indexed": true,
          "internalType": "uint256",
          "name": "nftId",
          "type": "uint256"
        },
        {
          "indexed": true,
          "internalType": "address",
          "name": "borrower",
          "type": "address"
        }
      ],
      "name": "LoanRepaid",
      "type": "event"
    },
    {
      "inputs": [
        {
          "internalType": "uint256",
          "name": "",
          "type": "uint256"
        }
      ],
      "name": "loans",
      "outputs": [
        {
          "internalType": "address",
          "name": "lender",
          "type": "address"
        },
        {
          "internalType": "address",
          "name": "borrower",
          "type": "address"
        },
        {
          "internalType": "uint256",
          "name": "nftId",
          "type": "uint256"
        },
        {
          "internalType": "uint256",
          "name": "amount",
          "type": "uint256"
        },
        {
          "internalType": "uint256",
          "name": "interest",
          "type": "uint256"
        },
        {
          "internalType": "uint256",
          "name": "duration",
          "type": "uint256"
        },
        {
          "internalType": "bool",
          "name": "isActive",
          "type": "bool"
        }
      ],
      "stateMutability": "view",
      "type": "function"
    },
    {
      "inputs": [],
      "name": "nftContract",
      "outputs": [
        {
          "internalType": "contract IERC721",
          "name": "",
          "type": "address"
        }
      ],
      "stateMutability": "view",
      "type": "function"
    },
    {
      "inputs": [
        {
          "internalType": "uint256",
          "name": "_nftId",
          "type": "uint256"
        },
        {
          "internalType": "uint256",
          "name": "_amount",
          "type": "uint256"
        },
        {
          "internalType": "uint256",
          "name": "_interest",
          "type": "uint256"
        },
        {
          "internalType": "uint256",
          "name": "_duration",
          "type": "uint256"
        }
      ],
      "name": "createLoan",
      "outputs": [],
      "stateMutability": "nonpayable",
      "type": "function"
    },
    {
      "inputs": [
        {
          "internalType": "uint256",
          "name": "_nftId",
          "type": "uint256"
        }
      ],
      "name": "borrow",
      "outputs": [],
      "stateMutability": "payable",
      "type": "function"
    },
    {
      "inputs": [
        {
          "internalType": "uint256",
          "name": "_nftId",
          "type": "uint256"
        }
      ],
      "name": "repayLoan",
      "outputs": [],
      "stateMutability": "payable",
      "type": "function"
    }
  ],
  "bytecode": "0x608060405234801561000f575f80fd5b50604051610ef1380380610ef1833981810160405281019061003191906100d4565b805f806101000a81548173ffffffffffffffffffffffffffffffffffffffff021916908373ffffffffffffffffffffffffffffffffffffffff160217905550506100ff565b5f80fd5b5f73ffffffffffffffffffffffffffffffffffffffff82169050919050565b5f6100a38261007a565b9050919050565b6100b381610099565b81146100bd575f80fd5b50565b5f815190506100ce816100aa565b92915050565b5f602082840312156100e9576100e8610076565b5b5f6100f6848285016100c0565b91505092915050565b610de58061010c5f395ff3fe608060405260043610610049575f3560e01c8063ab7b1c891461004d578063b9fae65014610069578063c5ebeaec14610091578063d56d229d146100ad578063e1ec3c68146100d7575b5f80fd5b61006760048036038101906100629190610887565b610119565b005b348015610074575f80fd5b5061008f600480360381019061008a91906108b2565b610322565b005b6100ab60048036038101906100a69190610887565b61064f565b005b3480156100b8575f80fd5b506100c16107a5565b6040516100ce9190610990565b60405180910390f35b3480156100e2575f80fd5b506100fd60048036038101906100f89190610887565b6107c8565b60405161011097969594939291906109f2565b60405180910390f35b5f60015f8381526020019081526020015f2090503373ffffffffffffffffffffffffffffffffffffffff16816001015f9054906101000a900473ffffffffffffffffffffffffffffffffffffffff1673ffffffffffffffffffffffffffffffffffffffff16146101be576040517f08c379a00000000000000000000000000000000000000000000000000000000081526004016101b590610ab9565b60405180910390fd5b806004015481600301546101d29190610b04565b3414610213576040517f08c379a000000000000000000000000000000000000000000000000000000000815260040161020a90610b81565b60405180910390fd5b5f8054906101000a900473ffffffffffffffffffffffffffffffffffffffff1673ffffffffffffffffffffffffffffffffffffffff166323b872dd30836001015f9054906101000a900473ffffffffffffffffffffffffffffffffffffffff16856040518463ffffffff1660e01b815260040161029293929190610b9f565b5f604051808303815f87803b1580156102a9575f80fd5b505af11580156102bb573d5f803e3d5ffd5b505050505f816006015f6101000a81548160ff0219169083151502179055503373ffffffffffffffffffffffffffffffffffffffff16827fe69d7686a8bc68278b8c5419579f91716b3ef2ac2fac0d8cf80b8011f8f458a460405160405180910390a35050565b3373ffffffffffffffffffffffffffffffffffffffff165f8054906101000a900473ffffffffffffffffffffffffffffffffffffffff1673ffffffffffffffffffffffffffffffffffffffff16636352211e866040518263ffffffff1660e01b81526004016103919190610bd4565b602060405180830381865afa1580156103ac573d5f803e3d5ffd5b505050506040513d601f19601f820116820180604052508101906103d09190610c17565b73ffffffffffffffffffffffffffffffffffffffff1614610426576040517f08c379a000000000000000000000000000000000000000000000000000000000815260040161041d90610c8c565b60405180910390fd5b5f8054906101000a900473ffffffffffffffffffffffffffffffffffffffff1673ffffffffffffffffffffffffffffffffffffffff166323b872dd3330876040518463ffffffff1660e01b815260040161048293929190610b9f565b5f604051808303815f87803b158015610499575f80fd5b505af11580156104ab573d5f803e3d5ffd5b505050506040518060e001604052803373ffffffffffffffffffffffffffffffffffffffff1681526020015f73ffffffffffffffffffffffffffffffffffffffff1681526020018581526020018481526020018381526020018281526020016001151581525060015f8681526020019081526020015f205f820151815f015f6101000a81548173ffffffffffffffffffffffffffffffffffffffff021916908373ffffffffffffffffffffffffffffffffffffffff1602179055506020820151816001015f6101000a81548173ffffffffffffffffffffffffffffffffffffffff021916908373ffffffffffffffffffffffffffffffffffffffff16021790555060408201518160020155606082015181600301556080820151816004015560a0820151816005015560c0820151816006015f6101000a81548160ff0219169083151502179055509050503373ffffffffffffffffffffffffffffffffffffffff16847fb2cca1719ad611d325136b9c9a4357f412d33694d93c60d4c1b6e922d524cf5985858560405161064193929190610caa565b60405180910390a350505050565b5f60015f8381526020019081526020015f209050806006015f9054906101000a900460ff166106b3576040517f08c379a00000000000000000000000000000000000000000000000000000000081526004016106aa90610d29565b60405180910390fd5b806003015434146106f9576040517f08c379a00000000000000000000000000000000000000000000000000000000081526004016106f090610d91565b60405180910390fd5b33816001015f6101000a81548173ffffffffffffffffffffffffffffffffffffffff021916908373ffffffffffffffffffffffffffffffffffffffff160217905550805f015f9054906101000a900473ffffffffffffffffffffffffffffffffffffffff1673ffffffffffffffffffffffffffffffffffffffff166108fc3490811502906040515f60405180830381858888f193505050501580156107a0573d5f803e3d5ffd5b505050565b5f8054906101000a900473ffffffffffffffffffffffffffffffffffffffff1681565b6001602052805f5260405f205f91509050805f015f9054906101000a900473ffffffffffffffffffffffffffffffffffffffff1690806001015f9054906101000a900473ffffffffffffffffffffffffffffffffffffffff1690806002015490806003015490806004015490806005015490806006015f9054906101000a900460ff16905087565b5f80fd5b5f819050919050565b61086681610854565b8114610870575f80fd5b50565b5f813590506108818161085d565b92915050565b5f6020828403121561089c5761089b610850565b5b5f6108a984828501610873565b91505092915050565b5f805f80608085870312156108ca576108c9610850565b5b5f6108d787828801610873565b94505060206108e887828801610873565b93505060406108f987828801610873565b925050606061090a87828801610873565b91505092959194509250565b5f73ffffffffffffffffffffffffffffffffffffffff82169050919050565b5f819050919050565b5f61095861095361094e84610916565b610935565b610916565b9050919050565b5f6109698261093e565b9050919050565b5f61097a8261095f565b9050919050565b61098a81610970565b82525050565b5f6020820190506109a35f830184610981565b92915050565b5f6109b382610916565b9050919050565b6109c3816109a9565b82525050565b6109d281610854565b82525050565b5f8115159050919050565b6109ec816109d8565b82525050565b5f60e082019050610a055f83018a6109ba565b610a1260208301896109ba565b610a1f60408301886109c9565b610a2c60608301876109c9565b610a3960808301866109c9565b610a4660a08301856109c9565b610a5360c08301846109e3565b98975050505050505050565b5f82825260208201905092915050565b7f4e6f742074686520626f72726f776572000000000000000000000000000000005f82015250565b5f610aa3601083610a5f565b9150610aae82610a6f565b602082019050919050565b5f6020820190508181035f830152610ad081610a97565b9050919050565b7f4e487b71000000000000000000000000000000000000000000000000000000005f52601160045260245ffd5b5f610b0e82610854565b9150610b1983610854565b9250828201905080821115610b3157610b30610ad7565b5b92915050565b7f496e636f72726563742072657061796d656e7420616d6f756e740000000000005f82015250565b5f610b6b601a83610a5f565b9150610b7682610b37565b602082019050919050565b5f6020820190508181035f830152610b9881610b5f565b9050919050565b5f606082019050610bb25f8301866109ba565b610bbf60208301856109ba565b610bcc60408301846109c9565b949350505050565b5f602082019050610be75f8301846109c9565b92915050565b610bf6816109a9565b8114610c00575f80fd5b50565b5f81519050610c1181610bed565b92915050565b5f60208284031215610c2c57610c2b610850565b5b5f610c3984828501610c03565b91505092915050565b7f4e6f7420746865206f776e6572000000000000000000000000000000000000005f82015250565b5f610c76600d83610a5f565b9150610c8182610c42565b602082019050919050565b5f6020820190508181035f830152610ca381610c6a565b9050919050565b5f606082019050610cbd5f8301866109c9565b610cca60208301856109c9565b610cd760408301846109c9565b949350505050565b7f4c6f616e206e6f742061637469766500000000000000000000000000000000005f82015250565b5f610d13600f83610a5f565b9150610d1e82610cdf565b602082019050919050565b5f6020820190508181035f830152610d4081610d07565b9050919050565b7f496e636f727265637420616d6f756e74000000000000000000000000000000005f82015250565b5f610d7b601083610a5f565b9150610d8682610d47565b602082019050919050565b5f6020820190508181035f830152610da881610d6f565b905091905056fea2646970667358221220ea32d5e872b9c82c9543a532c1313f108260462696d753fb3831b81e35545dc464736f6c63430008150033",
  "immutableReferences": {},
  "source": "// SPDX-License-Identifier: MIT\npragma solidity ^0.8.0;\n\nimport \"@openzeppelin/contracts/token/ERC721/IERC721.sol\";\n\ncontract NFTLending {\n    struct Loan {\n        address lender;\n        address borrower;\n        uint256 nftId;\n        uint256 amount;\n        uint256 interest;\n        uint256 duration;\n        bool isActive;\n    }\n\n    IERC721 public nftContract;\n    mapping(uint256 => Loan) public loans;\n\n    event LoanCreated(uint256 indexed nftId, address indexed lender, uint256 amount, uint256 interest, uint256 duration);\n    event LoanRepaid(uint256 indexed nftId, address indexed borrower);\n    event LoanDefaulted(uint256 indexed nftId);\n\n    constructor(address _nftContract) {\n        nftContract = IERC721(_nftContract);\n    }\n\n    function createLoan(uint256 _nftId, uint256 _amount, uint256 _interest, uint256 _duration) external {\n        require(nftContract.ownerOf(_nftId) == msg.sender, \"Not the owner\");\n        nftContract.transferFrom(msg.sender, address(this), _nftId);\n\n        loans[_nftId] = Loan({\n            lender: msg.sender,\n            borrower: address(0),\n            nftId: _nftId,\n            amount: _amount,\n            interest: _interest,\n            duration: _duration,\n            isActive: true\n        });\n\n        emit LoanCreated(_nftId, msg.sender, _amount, _interest, _duration);\n    }\n\n    function borrow(uint256 _nftId) external payable {\n        Loan storage loan = loans[_nftId];\n        require(loan.isActive, \"Loan not active\");\n        require(msg.value == loan.amount, \"Incorrect amount\");\n\n        loan.borrower = msg.sender;\n        payable(loan.lender).transfer(msg.value);\n\n        // Additional logic for interest and duration can be added here\n    }\n\n    function repayLoan(uint256 _nftId) external payable {\n        Loan storage loan = loans[_nftId];\n        require(loan.borrower == msg.sender, \"Not the borrower\");\n        require(msg.value == loan.amount + loan.interest, \"Incorrect repayment amount\");\n\n        nftContract.transferFrom(address(this), loan.borrower, _nftId);\n        loan.isActive = false;\n\n        emit LoanRepaid(_nftId, msg.sender);\n    }\n}",
  "sourcePath": "/Users/aya/Desktop/technical-assignement/lending-borrowing-contracts/contracts/NFTLending.sol",
  "compiler": {
    "name": "solc",
    "version": "0.8.21+commit.d9974bed.Emscripten.clang"
  },
  "schemaVersion": "3.4.16",
  "updatedAt": "2024-07-28T20:20:08.496Z",
  "devdoc": {
    "kind": "dev",
    "methods": {},
    "version": 1
  },
  "userdoc": {
    "kind": "user",
    "methods": {},
    "version": 1
  }
}