{
  "_format": "hh-sol-artifact-1",
  "contractName": "NFTLending",
  "sourceName": "contracts/NFTLending.sol",
  "abi": [
    {
      "inputs": [
        {
          "internalType": "address",
          "name": "_nftContract",
          "type": "address"
        }
      ],
      "stateMutability": "nonpayable",
      "type": "constructor"
    },
    {
      "inputs": [
        {
          "internalType": "uint256",
          "name": "_tokenId",
          "type": "uint256"
        }
      ],
      "name": "claimNFT",
      "outputs": [],
      "stateMutability": "nonpayable",
      "type": "function"
    },
    {
      "inputs": [
        {
          "internalType": "uint256",
          "name": "_tokenId",
          "type": "uint256"
        },
        {
          "internalType": "uint256",
          "name": "_amount",
          "type": "uint256"
        },
        {
          "internalType": "uint256",
          "name": "_interest",
          "type": "uint256"
        },
        {
          "internalType": "uint256",
          "name": "_duration",
          "type": "uint256"
        }
      ],
      "name": "createLoan",
      "outputs": [],
      "stateMutability": "nonpayable",
      "type": "function"
    },
    {
      "inputs": [
        {
          "internalType": "uint256",
          "name": "_tokenId",
          "type": "uint256"
        }
      ],
      "name": "fundLoan",
      "outputs": [],
      "stateMutability": "payable",
      "type": "function"
    },
    {
      "inputs": [
        {
          "internalType": "uint256",
          "name": "",
          "type": "uint256"
        }
      ],
      "name": "loans",
      "outputs": [
        {
          "internalType": "address",
          "name": "borrower",
          "type": "address"
        },
        {
          "internalType": "address",
          "name": "lender",
          "type": "address"
        },
        {
          "internalType": "uint256",
          "name": "amount",
          "type": "uint256"
        },
        {
          "internalType": "uint256",
          "name": "interest",
          "type": "uint256"
        },
        {
          "internalType": "uint256",
          "name": "duration",
          "type": "uint256"
        },
        {
          "internalType": "uint256",
          "name": "startTime",
          "type": "uint256"
        },
        {
          "internalType": "bool",
          "name": "repaid",
          "type": "bool"
        }
      ],
      "stateMutability": "view",
      "type": "function"
    },
    {
      "inputs": [],
      "name": "nftContract",
      "outputs": [
        {
          "internalType": "contract IERC721",
          "name": "",
          "type": "address"
        }
      ],
      "stateMutability": "view",
      "type": "function"
    },
    {
      "inputs": [
        {
          "internalType": "uint256",
          "name": "_tokenId",
          "type": "uint256"
        }
      ],
      "name": "repayLoan",
      "outputs": [],
      "stateMutability": "payable",
      "type": "function"
    }
  ],
  "bytecode": "0x608060405234801561001057600080fd5b506040516109a93803806109a983398101604081905261002f91610054565b600180546001600160a01b0319166001600160a01b0392909216919091179055610084565b60006020828403121561006657600080fd5b81516001600160a01b038116811461007d57600080fd5b9392505050565b610916806100936000396000f3fe6080604052600436106100555760003560e01c8063846b909a1461005a578063ab7b1c891461006f578063b9fae65014610082578063d56d229d146100a2578063e1ec3c68146100df578063fe5c873a14610188575b600080fd5b61006d61006836600461083e565b6101a8565b005b61006d61007d36600461083e565b6102b4565b34801561008e57600080fd5b5061006d61009d366004610857565b6104e8565b3480156100ae57600080fd5b506001546100c2906001600160a01b031681565b6040516001600160a01b0390911681526020015b60405180910390f35b3480156100eb57600080fd5b506101466100fa36600461083e565b60006020819052908152604090208054600182015460028301546003840154600485015460058601546006909601546001600160a01b0395861696959094169492939192909160ff1687565b604080516001600160a01b039889168152979096166020880152948601939093526060850191909152608084015260a0830152151560c082015260e0016100d6565b34801561019457600080fd5b5061006d6101a336600461083e565b6106ba565b600081815260208190526040902060018101546001600160a01b03161561020c5760405162461bcd60e51b8152602060048201526013602482015272131bd85b88185b1c9958591e48199d5b991959606a1b60448201526064015b60405180910390fd5b806002015434146102575760405162461bcd60e51b8152602060048201526015602482015274125b98dbdc9c9958dd081b1bd85b88185b5bdd5b9d605a1b6044820152606401610203565b6001810180546001600160a01b03191633179055426005820155805460028201546040516001600160a01b03929092169181156108fc0291906000818181858888f193505050501580156102af573d6000803e3d6000fd5b505050565b600081815260208190526040902080546001600160a01b0316331461031b5760405162461bcd60e51b815260206004820152601860248201527f596f7520617265206e6f742074686520626f72726f77657200000000000000006044820152606401610203565b600681015460ff16156103665760405162461bcd60e51b8152602060048201526013602482015272131bd85b88185b1c9958591e481c995c185a59606a1b6044820152606401610203565b8060040154816005015461037a9190610889565b4211156103c25760405162461bcd60e51b8152602060048201526016602482015275131bd85b88191d5c985d1a5bdb88195e18d95959195960521b6044820152606401610203565b6000816003015482600201546103d89190610889565b90508034146104295760405162461bcd60e51b815260206004820152601a60248201527f496e636f72726563742072657061796d656e7420616d6f756e740000000000006044820152606401610203565b60068201805460ff191660019081179091555482546040516323b872dd60e01b81523060048201526001600160a01b039182166024820152604481018690529116906323b872dd90606401600060405180830381600087803b15801561048e57600080fd5b505af11580156104a2573d6000803e3d6000fd5b50505060018301546040516001600160a01b03909116915082156108fc029083906000818181858888f193505050501580156104e2573d6000803e3d6000fd5b50505050565b6001546040516331a9108f60e11b81526004810186905233916001600160a01b031690636352211e90602401602060405180830381865afa158015610531573d6000803e3d6000fd5b505050506040513d601f19601f8201168201806040525081019061055591906108b0565b6001600160a01b0316146105ab5760405162461bcd60e51b815260206004820152601760248201527f596f7520646f206e6f74206f776e2074686973204e46540000000000000000006044820152606401610203565b6001546040516323b872dd60e01b8152336004820152306024820152604481018690526001600160a01b03909116906323b872dd90606401600060405180830381600087803b1580156105fd57600080fd5b505af1158015610611573d6000803e3d6000fd5b50506040805160e08101825233815260006020808301828152838501998a52606084019889526080840197885260a0840183815260c085018481529b84529183905293909120915182546001600160a01b03199081166001600160a01b0392831617845593516001840180549095169116179092559551600287015593516003860155505051600483015551600582015590516006909101805460ff1916911515919091179055565b600081815260208190526040902060018101546001600160a01b0316331461071d5760405162461bcd60e51b81526020600482015260166024820152752cb7ba9030b932903737ba103a3432903632b73232b960511b6044820152606401610203565b600681015460ff16156107685760405162461bcd60e51b8152602060048201526013602482015272131bd85b88185b1c9958591e481c995c185a59606a1b6044820152606401610203565b8060040154816005015461077c9190610889565b42116107ca5760405162461bcd60e51b815260206004820152601e60248201527f4c6f616e206475726174696f6e206e6f742079657420657863656564656400006044820152606401610203565b60018054908201546040516323b872dd60e01b81523060048201526001600160a01b039182166024820152604481018590529116906323b872dd90606401600060405180830381600087803b15801561082257600080fd5b505af1158015610836573d6000803e3d6000fd5b505050505050565b60006020828403121561085057600080fd5b5035919050565b6000806000806080858703121561086d57600080fd5b5050823594602084013594506040840135936060013592509050565b808201808211156108aa57634e487b7160e01b600052601160045260246000fd5b92915050565b6000602082840312156108c257600080fd5b81516001600160a01b03811681146108d957600080fd5b939250505056fea264697066735822122016f87e8f0f25421967cf3c086db238fefba48994a6d28201a1cdddde1038ff2564736f6c63430008180033",
  "linkReferences": {},
  "deployedLinkReferences": {}
}