{
  "_format": "hh-sol-artifact-1",
  "contractName": "NFTLending",
  "sourceName": "contracts/NFTLending.sol",
  "abi": [
    {
      "inputs": [
        {
          "internalType": "address",
          "name": "initialOwner",
          "type": "address"
        },
        {
          "internalType": "address",
          "name": "_nftContract",
          "type": "address"
        }
      ],
      "stateMutability": "nonpayable",
      "type": "constructor"
    },
    {
      "inputs": [
        {
          "internalType": "address",
          "name": "owner",
          "type": "address"
        }
      ],
      "name": "OwnableInvalidOwner",
      "type": "error"
    },
    {
      "inputs": [
        {
          "internalType": "address",
          "name": "account",
          "type": "address"
        }
      ],
      "name": "OwnableUnauthorizedAccount",
      "type": "error"
    },
    {
      "inputs": [],
      "name": "ReentrancyGuardReentrantCall",
      "type": "error"
    },
    {
      "anonymous": false,
      "inputs": [
        {
          "indexed": true,
          "internalType": "uint256",
          "name": "tokenId",
          "type": "uint256"
        },
        {
          "indexed": true,
          "internalType": "address",
          "name": "borrower",
          "type": "address"
        },
        {
          "indexed": false,
          "internalType": "uint256",
          "name": "loanAmount",
          "type": "uint256"
        },
        {
          "indexed": false,
          "internalType": "uint256",
          "name": "interestRate",
          "type": "uint256"
        },
        {
          "indexed": false,
          "internalType": "uint256",
          "name": "duration",
          "type": "uint256"
        }
      ],
      "name": "LoanCreated",
      "type": "event"
    },
    {
      "anonymous": false,
      "inputs": [
        {
          "indexed": true,
          "internalType": "uint256",
          "name": "tokenId",
          "type": "uint256"
        },
        {
          "indexed": true,
          "internalType": "address",
          "name": "borrower",
          "type": "address"
        },
        {
          "indexed": false,
          "internalType": "uint256",
          "name": "amount",
          "type": "uint256"
        }
      ],
      "name": "LoanRepaid",
      "type": "event"
    },
    {
      "anonymous": false,
      "inputs": [
        {
          "indexed": true,
          "internalType": "address",
          "name": "previousOwner",
          "type": "address"
        },
        {
          "indexed": true,
          "internalType": "address",
          "name": "newOwner",
          "type": "address"
        }
      ],
      "name": "OwnershipTransferred",
      "type": "event"
    },
    {
      "stateMutability": "payable",
      "type": "fallback"
    },
    {
      "inputs": [
        {
          "internalType": "address",
          "name": "",
          "type": "address"
        },
        {
          "internalType": "uint256",
          "name": "",
          "type": "uint256"
        }
      ],
      "name": "borrowerLoans",
      "outputs": [
        {
          "internalType": "uint256",
          "name": "",
          "type": "uint256"
        }
      ],
      "stateMutability": "view",
      "type": "function"
    },
    {
      "inputs": [
        {
          "internalType": "uint256",
          "name": "tokenId",
          "type": "uint256"
        },
        {
          "internalType": "uint256",
          "name": "loanAmount",
          "type": "uint256"
        },
        {
          "internalType": "uint256",
          "name": "interestRate",
          "type": "uint256"
        },
        {
          "internalType": "uint256",
          "name": "duration",
          "type": "uint256"
        }
      ],
      "name": "createLoan",
      "outputs": [],
      "stateMutability": "nonpayable",
      "type": "function"
    },
    {
      "inputs": [
        {
          "internalType": "uint256",
          "name": "tokenId",
          "type": "uint256"
        }
      ],
      "name": "liquidateLoan",
      "outputs": [],
      "stateMutability": "nonpayable",
      "type": "function"
    },
    {
      "inputs": [
        {
          "internalType": "uint256",
          "name": "",
          "type": "uint256"
        }
      ],
      "name": "loans",
      "outputs": [
        {
          "internalType": "address",
          "name": "borrower",
          "type": "address"
        },
        {
          "internalType": "uint256",
          "name": "tokenId",
          "type": "uint256"
        },
        {
          "internalType": "uint256",
          "name": "loanAmount",
          "type": "uint256"
        },
        {
          "internalType": "uint256",
          "name": "interestRate",
          "type": "uint256"
        },
        {
          "internalType": "uint256",
          "name": "duration",
          "type": "uint256"
        },
        {
          "internalType": "uint256",
          "name": "startTime",
          "type": "uint256"
        },
        {
          "internalType": "bool",
          "name": "repaid",
          "type": "bool"
        }
      ],
      "stateMutability": "view",
      "type": "function"
    },
    {
      "inputs": [],
      "name": "nftContract",
      "outputs": [
        {
          "internalType": "contract IERC721",
          "name": "",
          "type": "address"
        }
      ],
      "stateMutability": "view",
      "type": "function"
    },
    {
      "inputs": [
        {
          "internalType": "address",
          "name": "",
          "type": "address"
        },
        {
          "internalType": "address",
          "name": "",
          "type": "address"
        },
        {
          "internalType": "uint256",
          "name": "",
          "type": "uint256"
        },
        {
          "internalType": "bytes",
          "name": "",
          "type": "bytes"
        }
      ],
      "name": "onERC721Received",
      "outputs": [
        {
          "internalType": "bytes4",
          "name": "",
          "type": "bytes4"
        }
      ],
      "stateMutability": "nonpayable",
      "type": "function"
    },
    {
      "inputs": [],
      "name": "owner",
      "outputs": [
        {
          "internalType": "address",
          "name": "",
          "type": "address"
        }
      ],
      "stateMutability": "view",
      "type": "function"
    },
    {
      "inputs": [],
      "name": "renounceOwnership",
      "outputs": [],
      "stateMutability": "nonpayable",
      "type": "function"
    },
    {
      "inputs": [
        {
          "internalType": "uint256",
          "name": "tokenId",
          "type": "uint256"
        }
      ],
      "name": "repayLoan",
      "outputs": [],
      "stateMutability": "payable",
      "type": "function"
    },
    {
      "inputs": [
        {
          "internalType": "address",
          "name": "newOwner",
          "type": "address"
        }
      ],
      "name": "transferOwnership",
      "outputs": [],
      "stateMutability": "nonpayable",
      "type": "function"
    },
    {
      "stateMutability": "payable",
      "type": "receive"
    }
  ],
  "bytecode": "0x608060405234801561001057600080fd5b50604051610f84380380610f8483398101604081905261002f91610101565b6001600055816001600160a01b03811661006357604051631e4fbdf760e01b81526000600482015260240160405180910390fd5b61006c81610093565b50600280546001600160a01b0319166001600160a01b039290921691909117905550610134565b600180546001600160a01b038381166001600160a01b0319831681179093556040519116919082907f8be0079c531659141344cd1fd0a4f28419497f9722a3daafe3b4186f6b6457e090600090a35050565b80516001600160a01b03811681146100fc57600080fd5b919050565b6000806040838503121561011457600080fd5b61011d836100e5565b915061012b602084016100e5565b90509250929050565b610e41806101436000396000f3fe60806040526004361061008f5760003560e01c8063ccdd9f5d11610056578063ccdd9f5d1461015b578063d56d229d1461017b578063e1ec3c681461019b578063e3ed190214610242578063f2fde38b1461027057005b8063150b7a0214610098578063715018a6146100e15780638da5cb5b146100f6578063ab7b1c8914610128578063b9fae6501461013b57005b3661009657005b005b3480156100a457600080fd5b506100c36100b3366004610be9565b630a85bd0160e11b949350505050565b6040516001600160e01b031990911681526020015b60405180910390f35b3480156100ed57600080fd5b50610096610290565b34801561010257600080fd5b506001546001600160a01b03165b6040516001600160a01b0390911681526020016100d8565b610096610136366004610cc9565b6102a4565b34801561014757600080fd5b50610096610156366004610ce2565b61051a565b34801561016757600080fd5b50610096610176366004610cc9565b610948565b34801561018757600080fd5b50600254610110906001600160a01b031681565b3480156101a757600080fd5b506102016101b6366004610cc9565b600360208190526000918252604090912080546001820154600283015493830154600484015460058501546006909501546001600160a01b0390941695929492939192909160ff1687565b604080516001600160a01b0390981688526020880196909652948601939093526060850191909152608084015260a0830152151560c082015260e0016100d8565b34801561024e57600080fd5b5061026261025d366004610d14565b610aa9565b6040519081526020016100d8565b34801561027c57600080fd5b5061009661028b366004610d40565b610ada565b610298610b15565b6102a26000610b42565b565b6102ac610b94565b600081815260036020526040902080546001600160a01b031633146103185760405162461bcd60e51b815260206004820152601860248201527f596f7520617265206e6f742074686520626f72726f776572000000000000000060448201526064015b60405180910390fd5b600681015460ff16156103635760405162461bcd60e51b8152602060048201526013602482015272131bd85b88185b1c9958591e481c995c185a59606a1b604482015260640161030f565b806004015481600501546103779190610d7a565b4211156103be5760405162461bcd60e51b8152602060048201526015602482015274131bd85b88191d5c985d1a5bdb88195e1c1a5c9959605a1b604482015260640161030f565b600063bbf81e008260030154836004015484600201546103de9190610d93565b6103e89190610d93565b6103f29190610daa565b905060008183600201546104069190610d7a565b90508034146104575760405162461bcd60e51b815260206004820152601a60248201527f496e636f72726563742072657061796d656e7420616d6f756e74000000000000604482015260640161030f565b60068301805460ff191660011790556002548354604051632142170760e11b81523060048201526001600160a01b039182166024820152604481018790529116906342842e0e90606401600060405180830381600087803b1580156104bb57600080fd5b505af11580156104cf573d6000803e3d6000fd5b50506040513481523392508691507f512d3e65b3e58c2187bb1872aa435dba5bd09c1c03823ba56ab70aac411e4a219060200160405180910390a35050506105176001600055565b50565b610522610b94565b6002546040516331a9108f60e11b81526004810186905233916001600160a01b031690636352211e90602401602060405180830381865afa15801561056b573d6000803e3d6000fd5b505050506040513d601f19601f8201168201806040525081019061058f9190610dcc565b6001600160a01b0316146105e55760405162461bcd60e51b815260206004820152601760248201527f596f7520646f206e6f74206f776e2074686973204e4654000000000000000000604482015260640161030f565b60025460405163e985e9c560e01b81523360048201523060248201526001600160a01b039091169063e985e9c590604401602060405180830381865afa158015610633573d6000803e3d6000fd5b505050506040513d601f19601f820116820180604052508101906106579190610de9565b806106d5575060025460405163020604bf60e21b81526004810186905230916001600160a01b03169063081812fc90602401602060405180830381865afa1580156106a6573d6000803e3d6000fd5b505050506040513d601f19601f820116820180604052508101906106ca9190610dcc565b6001600160a01b0316145b61072f5760405162461bcd60e51b815260206004820152602560248201527f436f6e7472616374206e6f7420617070726f76656420746f207472616e7366656044820152641c8813919560da1b606482015260840161030f565b600254604051632142170760e11b8152336004820152306024820152604481018690526001600160a01b03909116906342842e0e90606401600060405180830381600087803b15801561078157600080fd5b505af1158015610795573d6000803e3d6000fd5b505050506040518060e00160405280336001600160a01b03168152602001858152602001848152602001838152602001828152602001428152602001600015158152506003600086815260200190815260200160002060008201518160000160006101000a8154816001600160a01b0302191690836001600160a01b031602179055506020820151816001015560408201518160020155606082015181600301556080820151816004015560a0820151816005015560c08201518160060160006101000a81548160ff02191690831515021790555090505060046000336001600160a01b03166001600160a01b03168152602001908152602001600020849080600181540180825580915050600190039060005260206000200160009091909190915055336001600160a01b03166108fc849081150290604051600060405180830381858888f193505050501580156108f2573d6000803e3d6000fd5b506040805184815260208101849052908101829052339085907fb2cca1719ad611d325136b9c9a4357f412d33694d93c60d4c1b6e922d524cf599060600160405180910390a36109426001600055565b50505050565b610950610b15565b610958610b94565b6000818152600360205260409020600681015460ff16156109b15760405162461bcd60e51b8152602060048201526013602482015272131bd85b88185b1c9958591e481c995c185a59606a1b604482015260640161030f565b806004015481600501546109c59190610d7a565b4211610a135760405162461bcd60e51b815260206004820152601960248201527f4c6f616e206475726174696f6e206e6f74206578706972656400000000000000604482015260640161030f565b6002546001600160a01b03166342842e0e30610a376001546001600160a01b031690565b6040516001600160e01b031960e085901b1681526001600160a01b0392831660048201529116602482015260448101859052606401600060405180830381600087803b158015610a8657600080fd5b505af1158015610a9a573d6000803e3d6000fd5b50505050506105176001600055565b60046020528160005260406000208181548110610ac557600080fd5b90600052602060002001600091509150505481565b610ae2610b15565b6001600160a01b038116610b0c57604051631e4fbdf760e01b81526000600482015260240161030f565b61051781610b42565b6001546001600160a01b031633146102a25760405163118cdaa760e01b815233600482015260240161030f565b600180546001600160a01b038381166001600160a01b0319831681179093556040519116919082907f8be0079c531659141344cd1fd0a4f28419497f9722a3daafe3b4186f6b6457e090600090a35050565b600260005403610bb757604051633ee5aeb560e01b815260040160405180910390fd5b6002600055565b6001600160a01b038116811461051757600080fd5b634e487b7160e01b600052604160045260246000fd5b60008060008060808587031215610bff57600080fd5b8435610c0a81610bbe565b93506020850135610c1a81610bbe565b925060408501359150606085013567ffffffffffffffff80821115610c3e57600080fd5b818701915087601f830112610c5257600080fd5b813581811115610c6457610c64610bd3565b604051601f8201601f19908116603f01168101908382118183101715610c8c57610c8c610bd3565b816040528281528a6020848701011115610ca557600080fd5b82602086016020830137600060208483010152809550505050505092959194509250565b600060208284031215610cdb57600080fd5b5035919050565b60008060008060808587031215610cf857600080fd5b5050823594602084013594506040840135936060013592509050565b60008060408385031215610d2757600080fd5b8235610d3281610bbe565b946020939093013593505050565b600060208284031215610d5257600080fd5b8135610d5d81610bbe565b9392505050565b634e487b7160e01b600052601160045260246000fd5b80820180821115610d8d57610d8d610d64565b92915050565b8082028115828204841417610d8d57610d8d610d64565b600082610dc757634e487b7160e01b600052601260045260246000fd5b500490565b600060208284031215610dde57600080fd5b8151610d5d81610bbe565b600060208284031215610dfb57600080fd5b81518015158114610d5d57600080fdfea26469706673582212205063660b16329293e63d62a514f315e55f8d79c4a68a3a3a164ddf6f3ac8bf4a64736f6c63430008180033",
  "linkReferences": {},
  "deployedLinkReferences": {}
}